:100000000C942A000C943C000C943C000C943C0092
:100010000C943C000C943C000C943C000C943C0070
:100020000C943C000C943C000C943C000C943C0060
:100030000C943C000C9445000C9471000C943C0012
:100040000C943C000C943C000C943C000C943C0040
:100050000C943C0011241FBECFE5D8E0DEBFCDBF1D
:1000600020E0A0E6B0E001C01D92A53AB207E1F79A
:100070000E943E000C94C3000C94000087E690E0C0
:100080000E9496000E94AA00FDCF1F920F920FB609
:100090000F9211242F938F939F93EF93FF938BB124
:1000A0002CB18871E0916200EF5FEF719091610077
:1000B000E91739F0E0936200F0E0EB59FF4F20833D
:1000C00001C082E090916000892B80936000FF91D5
:1000D000EF919F918F912F910F900FBE0F901F90D6
:1000E00018951F920F920FB60F9211248F939F9322
:1000F000EF93FF939091640080916300981761F0F3
:10010000E0916300EF5FEF71E0936300F0E0EB5785
:10011000FF4F80818CB901C05598FF91EF919F915D
:100120008F910F900FBE0F901F9018951092640042
:1001300010926300109262001092610099231CF4E7
:1001400022E02BB99F7790BD89B988E98AB986E802
:1001500080BD08959091620080916100981781F0B0
:10016000E0916100EF5FEF71E0936100F0E0EB5927
:10017000FF4F8081909160001092600090E00895A0
:0A01800080E091E00895F894FFCFAD
:00000001FF
