S019000041544D45474120426F6F746C6F616465722E7372656331
S11370000C9431380C944E380C944E380C944E3801
S11370100C944E380C944E380C944E380C944E38D4
S11370200C944E380C944E380C944E380C944E38C4
S11370300C944E380C94A43A0C94D03A0C944E38D8
S11370400C944E380C944E380C944E380C944E38A4
S11370500C944E38433951396F399639BE39123A46
S1137060553A11241FBECFE5D8E0DEBFCDBF11E0F5
S1137070A0E6B0E0E2EAF6E702C005900D92AA3578
S1137080B107D9F721E0AAE5B1E001C01D92A13A08
S1137090B207E1F70E94BD380C944F3B0C940038C2
S11370A0482FE82FF92F20E030E01AC0919180EDAD
S11370B0890F8A3060F08FEB890F863010F4975374
S11370C007C08FE9890F863018F4975501C0982FAF
S11370D022953295307F3227207F3227290F311DA8
S11370E08E2F841B861710F3C9010895CF92DF9267
S11370F0EF92FF92CF93DF936B017C016FB7F8940B
S1137100E199FECFC60123E0F60120935700E895EC
S113711007B600FCFDCFEA01C058DF4FDA0131E0C9
S1137120FC01E41BF50BAF012C91FA01EA0FFB1FE4
S113713011968C91119790E0982F8827820F911DBA
S11371400C0130935700E89511241296AC17BD0733
S113715059F785E0F60180935700E89507B600FCDF
S1137160FDCF81E180935700E8956FBFDF91CF9108
S1137170FF90EF90DF90CF900895CF93DF93CDB73A
S1137180DEB7C658D1090FB6F894DEBF0FBECDBF27
S11371902FEF89E698E1215080409040E1F700C04C
S11371A0000004B603FE07C014BEE0915A01F0913A
S11371B05B01099508C00FB6F894A89581B588615C
S11371C081BD11BC0FBEFE01EF57FF4F85E0DF010B
S11371D01D928A95E9F740E850E06FEF70E0CE0128
S11371E001960E94483B8BB7982F91609BBF8260A9
S11371F08BBF83E390E00E94F53A789480E690E0B8
S11372000E94333B87E890E00E94333B8FEA90E092
S11372100E94333B88EC90E00E94333B81EE90E087
S11372200E94333BBFEF23ED80E3B1502040804008
S1137230E1F700C00000CA57DF4F1882C658D0409B
S1137240612C212C10E03324339400E0512CA12C28
S1137250B12CE12CF12C812C912C44244394712CDD
S11372600E94093B6C0190FD46C191E0591221C175
S1137270802F90E08730910508F03DC1FC01E65D68
S1137280F74C0C94423BAAE3CA125CC183E10E940E
S1137290223B81E10E94223B172D042DE12CF12C8D
S11372A051C181E0810FE1E8F0E0EC0FFD1FE10F37
S11372B0F11DC082823009F03CC183E10E94223B6F
S11372C062E0CE018F579F4F0E945038282EE80E5F
S11372D0F11C81E10E94223B172D02E033C181E0C1
S11372E0810FE1E8F0E0EC0FFD1FE10FF11DC0821A
S11372F0843009F020C183E10E94223B64E0CE0186
S11373008F579F4F0E945038292F3327280F311D44
S1137310E20EF31E332019F04C01B0E88B2281E118
S11373200E94223B172D372C03E00CC181E0810F12
S1137330E1E8F0E0EC0FFD1FE10FF11DC0828230A7
S113734009F0FBC083E10E94223B62E0CE018F572B
S11373509F4F0E945038CA57DF4F8883C658D04089
S11373609927E80EF91E019711F405E001C004E025
S113737081E10E94223B612C172DE4C081E0810F42
S1137380E1E8F0E0EC0FFD1FE10FF11DC082823057
S113739009F0D5C083E10E94223B8EE20E94223B89
S11373A062E0CE018F579F4F0E945038E1E0F0E039
S11373B0EC0FFD1FEA0DFB1D8083E80EF11C2FEF7F
S11373C0A21AB20A6394261002C0612C05E080E878
S11373D0A816B10411F587E091E00E94333B9FEFBA
S11373E0A1EEB4E09150A040B040E1F700C000002D
S11373F0C401A0E0B0E0AE014F5F5F4FBC01CD011E
S11374000E94763840E850E06FEF70E0CE010196BC
S11374100E94483B342CA12CB12C81E10E94223BD8
S1137420172D90C0DD24D394D10EE1E8F0E0EC0FE9
S1137430FD1FE10FF11DC08222E0D21282C083E160
S11374400E94223B62E0CE018F579F4F0E9450382A
S1137450E80EF11CFF24CA57DF4F8881C658D0407C
S11374608130C1F487E091E00E94333B9FEFA1EEAD
S1137470B4E09150A040B040E1F700C00000C40166
S1137480A0E0B0E0AE014F5F5F4FBC01CD010E94B0
S11374907638572CE114F10411F006E001C0072DF1
S11374A081E10E94223B1D2D26C083E20E94223BE3
S11374B049C0C60199278037910521F0813791058C
S11374C051F00EC08BE091E00E94333B8DE191E0DE
S11374D00E94333B37C08AE291E00E94333B0DC0E7
S11374E088E391E00E94333B8C2D0E94223B86E589
S11374F091E00E94333B5110B3CE8FE391E00E94A0
S1137500333B2FEF85EA9EE0215080409040E1F725
S113751000C000008BB7982F91609BBF8D7F8BBFFD
S113752098E088E10FB6F894A89581BD0FBE91BD8F
S1137530FFCF182F07C0182F05C0182F03C0182F0E
S113754001C01D2D542C8CCE1F920F920FB60F929A
S113755011242F938F939F93EF93FF938BB12CB1AF
S11375608871E0915E01EF5FEF7190915D01E91721
S113757039F0E0935E01F0E0EF59FE4F208301C043
S113758082E090915C01892B80935C01FF91EF91E3
S11375909F918F912F910F900FBE0F901F90189570
S11375A01F920F920FB60F9211248F939F93EF9314
S11375B0FF939091600180915F01981761F0E091D1
S11375C05F01EF5FEF71E0935F01F0E0EF57FE4F73
S11375D080818CB901C05598FF91EF919F918F9153
S11375E00F900FBE0F901F9018951092600110928B
S11375F05F0110925E0110925D0199231CF422E058
S11376002BB99F7790BD89B988E98AB986E880BD8E
S1137610089590915E0180915D01981781F0E09149
S11376205D01EF5FEF71E0935D01F0E0EF59FE4F14
S1137630808190915C0110925C0190E0089580E05B
S113764091E00895209160012F5F2F7190915F0167
S11376502917E1F3E22FF0E0EF57FE4F80832093E8
S11376606001559A0895CF93DF93EC0188818823B4
S113767031F021960E94223B89918111FBCFDF9149
S1137680CF910895EE0FFF1F0590F491E02D09941A
S1137690DC0101C06D9341505040E0F70895F89427
S10576A0FFCF16
S11376A20A0D2A2A2A2A2A2A2A2A2A2A2A2A2A2A71
S11376B22A2A2A2A2A2A2A2A2A2A2A2A2A2A2A2A24
S11376C22A2A2A2A0A0D002A204A2E4820456C65B5
S11376D263202D20426F6F7479205665722E3A31E1
S11376E22E302E303632342E303530390A0D002AFF
S11376F22070726573732022702220666F72206676
S11377026C617368210A0D002A206E6F74653A2039
S1137712656E61626C6520584F4E2F4F46460A0DC6
S1137722002A2A2A2A2A2A2A2A2A2A2A2A2A2A2ADD
S11377322A2A2A2A2A2A2A2A2A2A2A2A2A2A2A2AA3
S11377422A2A2A0A0A0D00500A0D00666C6173681F
S113775220446576426F617264210A0D0070617380
S11377627465202E6865780A0D0065786974206254
S11377726F6F7479210A0D006563686F3A200053B4
S113778274617274696E67204170706C69636174AC
S10D7792696F6E210A0A0A0D000057
S903015AA1
